{
  "abi": [
    {
      "inputs": [
        {
          "internalType": "string",
          "name": "name_",
          "type": "string"
        },
        {
          "internalType": "string",
          "name": "symbol_",
          "type": "string"
        }
      ],
      "stateMutability": "nonpayable",
      "type": "constructor"
    },
    {
      "inputs": [],
      "name": "ApprovalCallerNotOwnerNorApproved",
      "type": "error"
    },
    {
      "inputs": [],
      "name": "ApprovalQueryForNonexistentToken",
      "type": "error"
    },
    {
      "inputs": [],
      "name": "BalanceQueryForZeroAddress",
      "type": "error"
    },
    {
      "inputs": [],
      "name": "MintERC2309QuantityExceedsLimit",
      "type": "error"
    },
    {
      "inputs": [],
      "name": "MintToZeroAddress",
      "type": "error"
    },
    {
      "inputs": [],
      "name": "MintZeroQuantity",
      "type": "error"
    },
    {
      "inputs": [],
      "name": "OwnerQueryForNonexistentToken",
      "type": "error"
    },
    {
      "inputs": [],
      "name": "OwnershipNotInitializedForExtraData",
      "type": "error"
    },
    {
      "inputs": [],
      "name": "TransferCallerNotOwnerNorApproved",
      "type": "error"
    },
    {
      "inputs": [],
      "name": "TransferFromIncorrectOwner",
      "type": "error"
    },
    {
      "inputs": [],
      "name": "TransferToNonERC721ReceiverImplementer",
      "type": "error"
    },
    {
      "inputs": [],
      "name": "TransferToZeroAddress",
      "type": "error"
    },
    {
      "inputs": [],
      "name": "URIQueryForNonexistentToken",
      "type": "error"
    },
    {
      "anonymous": false,
      "inputs": [
        {
          "indexed": true,
          "internalType": "address",
          "name": "owner",
          "type": "address"
        },
        {
          "indexed": true,
          "internalType": "address",
          "name": "approved",
          "type": "address"
        },
        {
          "indexed": true,
          "internalType": "uint256",
          "name": "tokenId",
          "type": "uint256"
        }
      ],
      "name": "Approval",
      "type": "event"
    },
    {
      "anonymous": false,
      "inputs": [
        {
          "indexed": true,
          "internalType": "address",
          "name": "owner",
          "type": "address"
        },
        {
          "indexed": true,
          "internalType": "address",
          "name": "operator",
          "type": "address"
        },
        {
          "indexed": false,
          "internalType": "bool",
          "name": "approved",
          "type": "bool"
        }
      ],
      "name": "ApprovalForAll",
      "type": "event"
    },
    {
      "anonymous": false,
      "inputs": [
        {
          "indexed": true,
          "internalType": "uint256",
          "name": "fromTokenId",
          "type": "uint256"
        },
        {
          "indexed": false,
          "internalType": "uint256",
          "name": "toTokenId",
          "type": "uint256"
        },
        {
          "indexed": true,
          "internalType": "address",
          "name": "from",
          "type": "address"
        },
        {
          "indexed": true,
          "internalType": "address",
          "name": "to",
          "type": "address"
        }
      ],
      "name": "ConsecutiveTransfer",
      "type": "event"
    },
    {
      "anonymous": false,
      "inputs": [
        {
          "indexed": true,
          "internalType": "address",
          "name": "from",
          "type": "address"
        },
        {
          "indexed": true,
          "internalType": "address",
          "name": "to",
          "type": "address"
        },
        {
          "indexed": true,
          "internalType": "uint256",
          "name": "tokenId",
          "type": "uint256"
        }
      ],
      "name": "Transfer",
      "type": "event"
    },
    {
      "inputs": [
        {
          "internalType": "address",
          "name": "to",
          "type": "address"
        },
        {
          "internalType": "uint256",
          "name": "quantity",
          "type": "uint256"
        }
      ],
      "name": "_mint",
      "outputs": [],
      "stateMutability": "nonpayable",
      "type": "function"
    },
    {
      "inputs": [
        {
          "internalType": "address",
          "name": "to",
          "type": "address"
        },
        {
          "internalType": "uint256",
          "name": "tokenId",
          "type": "uint256"
        }
      ],
      "name": "approve",
      "outputs": [],
      "stateMutability": "payable",
      "type": "function"
    },
    {
      "inputs": [
        {
          "internalType": "address",
          "name": "owner",
          "type": "address"
        }
      ],
      "name": "balanceOf",
      "outputs": [
        {
          "internalType": "uint256",
          "name": "",
          "type": "uint256"
        }
      ],
      "stateMutability": "view",
      "type": "function"
    },
    {
      "inputs": [
        {
          "internalType": "uint256",
          "name": "tokenId",
          "type": "uint256"
        }
      ],
      "name": "getApproved",
      "outputs": [
        {
          "internalType": "address",
          "name": "",
          "type": "address"
        }
      ],
      "stateMutability": "view",
      "type": "function"
    },
    {
      "inputs": [
        {
          "internalType": "address",
          "name": "owner",
          "type": "address"
        },
        {
          "internalType": "address",
          "name": "operator",
          "type": "address"
        }
      ],
      "name": "isApprovedForAll",
      "outputs": [
        {
          "internalType": "bool",
          "name": "",
          "type": "bool"
        }
      ],
      "stateMutability": "view",
      "type": "function"
    },
    {
      "inputs": [],
      "name": "name",
      "outputs": [
        {
          "internalType": "string",
          "name": "",
          "type": "string"
        }
      ],
      "stateMutability": "view",
      "type": "function"
    },
    {
      "inputs": [
        {
          "internalType": "uint256",
          "name": "tokenId",
          "type": "uint256"
        }
      ],
      "name": "ownerOf",
      "outputs": [
        {
          "internalType": "address",
          "name": "",
          "type": "address"
        }
      ],
      "stateMutability": "view",
      "type": "function"
    },
    {
      "inputs": [
        {
          "internalType": "address",
          "name": "from",
          "type": "address"
        },
        {
          "internalType": "address",
          "name": "to",
          "type": "address"
        },
        {
          "internalType": "uint256",
          "name": "tokenId",
          "type": "uint256"
        }
      ],
      "name": "safeTransferFrom",
      "outputs": [],
      "stateMutability": "payable",
      "type": "function"
    },
    {
      "inputs": [
        {
          "internalType": "address",
          "name": "from",
          "type": "address"
        },
        {
          "internalType": "address",
          "name": "to",
          "type": "address"
        },
        {
          "internalType": "uint256",
          "name": "tokenId",
          "type": "uint256"
        },
        {
          "internalType": "bytes",
          "name": "_data",
          "type": "bytes"
        }
      ],
      "name": "safeTransferFrom",
      "outputs": [],
      "stateMutability": "payable",
      "type": "function"
    },
    {
      "inputs": [
        {
          "internalType": "address",
          "name": "operator",
          "type": "address"
        },
        {
          "internalType": "bool",
          "name": "approved",
          "type": "bool"
        }
      ],
      "name": "setApprovalForAll",
      "outputs": [],
      "stateMutability": "nonpayable",
      "type": "function"
    },
    {
      "inputs": [
        {
          "internalType": "bytes4",
          "name": "interfaceId",
          "type": "bytes4"
        }
      ],
      "name": "supportsInterface",
      "outputs": [
        {
          "internalType": "bool",
          "name": "",
          "type": "bool"
        }
      ],
      "stateMutability": "view",
      "type": "function"
    },
    {
      "inputs": [],
      "name": "symbol",
      "outputs": [
        {
          "internalType": "string",
          "name": "",
          "type": "string"
        }
      ],
      "stateMutability": "view",
      "type": "function"
    },
    {
      "inputs": [
        {
          "internalType": "uint256",
          "name": "tokenId",
          "type": "uint256"
        }
      ],
      "name": "tokenURI",
      "outputs": [
        {
          "internalType": "string",
          "name": "",
          "type": "string"
        }
      ],
      "stateMutability": "view",
      "type": "function"
    },
    {
      "inputs": [],
      "name": "totalSupply",
      "outputs": [
        {
          "internalType": "uint256",
          "name": "",
          "type": "uint256"
        }
      ],
      "stateMutability": "view",
      "type": "function"
    },
    {
      "inputs": [
        {
          "internalType": "address",
          "name": "from",
          "type": "address"
        },
        {
          "internalType": "address",
          "name": "to",
          "type": "address"
        },
        {
          "internalType": "uint256",
          "name": "tokenId",
          "type": "uint256"
        }
      ],
      "name": "transferFrom",
      "outputs": [],
      "stateMutability": "payable",
      "type": "function"
    }
  ],
  "bytecode": {
    "object": "0x60806040523480156200001157600080fd5b506040516200116238038062001162833981016040819052620000349162000123565b60026200004283826200021c565b5060036200005182826200021c565b50506000805550620002e8565b634e487b7160e01b600052604160045260246000fd5b600082601f8301126200008657600080fd5b81516001600160401b0380821115620000a357620000a36200005e565b604051601f8301601f19908116603f01168101908282118183101715620000ce57620000ce6200005e565b81604052838152602092508683858801011115620000eb57600080fd5b600091505b838210156200010f5785820183015181830184015290820190620000f0565b600093810190920192909252949350505050565b600080604083850312156200013757600080fd5b82516001600160401b03808211156200014f57600080fd5b6200015d8683870162000074565b935060208501519150808211156200017457600080fd5b50620001838582860162000074565b9150509250929050565b600181811c90821680620001a257607f821691505b602082108103620001c357634e487b7160e01b600052602260045260246000fd5b50919050565b601f8211156200021757600081815260208120601f850160051c81016020861015620001f25750805b601f850160051c820191505b818110156200021357828155600101620001fe565b5050505b505050565b81516001600160401b038111156200023857620002386200005e565b62000250816200024984546200018d565b84620001c9565b602080601f8311600181146200028857600084156200026f5750858301515b600019600386901b1c1916600185901b17855562000213565b600085815260208120601f198616915b82811015620002b95788860151825594840194600190910190840162000298565b5085821015620002d85787850151600019600388901b60f8161c191681555b5050505050600190811b01905550565b610e6a80620002f86000396000f3fe6080604052600436106100e85760003560e01c80634e6ec2471161008a578063a22cb46511610059578063a22cb4651461024f578063b88d4fde1461026f578063c87b56dd14610282578063e985e9c5146102a257600080fd5b80634e6ec247146101da5780636352211e146101fa57806370a082311461021a57806395d89b411461023a57600080fd5b8063095ea7b3116100c6578063095ea7b31461017c57806318160ddd1461019157806323b872dd146101b457806342842e0e146101c757600080fd5b806301ffc9a7146100ed57806306fdde0314610122578063081812fc14610144575b600080fd5b3480156100f957600080fd5b5061010d610108366004610aba565b6102eb565b60405190151581526020015b60405180910390f35b34801561012e57600080fd5b5061013761033d565b6040516101199190610b27565b34801561015057600080fd5b5061016461015f366004610b3a565b6103cf565b6040516001600160a01b039091168152602001610119565b61018f61018a366004610b6a565b61040a565b005b34801561019d57600080fd5b50600154600054035b604051908152602001610119565b61018f6101c2366004610b94565b61041a565b61018f6101d5366004610b94565b61057f565b3480156101e657600080fd5b5061018f6101f5366004610b6a565b61059f565b34801561020657600080fd5b50610164610215366004610b3a565b61065e565b34801561022657600080fd5b506101a6610235366004610bd0565b610669565b34801561024657600080fd5b506101376106af565b34801561025b57600080fd5b5061018f61026a366004610beb565b6106be565b61018f61027d366004610c3d565b61072a565b34801561028e57600080fd5b5061013761029d366004610b3a565b61076b565b3480156102ae57600080fd5b5061010d6102bd366004610d19565b6001600160a01b03918216600090815260076020908152604080832093909416825291909152205460ff1690565b60006301ffc9a760e01b6001600160e01b03198316148061031c57506380ac58cd60e01b6001600160e01b03198316145b806103375750635b5e139f60e01b6001600160e01b03198316145b92915050565b60606002805461034c90610d4c565b80601f016020809104026020016040519081016040528092919081815260200182805461037890610d4c565b80156103c55780601f1061039a576101008083540402835291602001916103c5565b820191906000526020600020905b8154815290600101906020018083116103a857829003601f168201915b5050505050905090565b60006103da826107f3565b6103ee576103ee6333d1c03960e21b610838565b506000908152600660205260409020546001600160a01b031690565b61041682826001610842565b5050565b6000610425826108e5565b6001600160a01b03948516949091508116841461044b5761044b62a1148160e81b610838565b60008281526006602052604090208054338082146001600160a01b0388169091141761048f5761047b86336102bd565b61048f5761048f632ce44b5f60e11b610838565b801561049a57600082555b6001600160a01b038681166000908152600560205260408082208054600019019055918716808252919020805460010190554260a01b17600160e11b17600085815260046020526040812091909155600160e11b8416900361052c5760018401600081815260046020526040812054900361052a57600054811461052a5760008181526004602052604090208490555b505b6001600160a01b0385168481887fddf252ad1be2c89b69c2b068fc378daa952ba7f163c4a11628f55a4df523b3ef600080a48060000361057657610576633a954ecd60e21b610838565b50505050505050565b61059a8383836040518060200160405280600081525061072a565b505050565b60008054908290036105bb576105bb63b562e8dd60e01b610838565b60008181526004602090815260408083206001600160a01b0387164260a01b6001881460e11b1781179091558084526005909252822080546801000000000000000186020190559081900361061957610619622e076360e81b610838565b818301825b808360007fddf252ad1be2c89b69c2b068fc378daa952ba7f163c4a11628f55a4df523b3ef600080a481816001019150810361061e575060005550505050565b6000610337826108e5565b60006001600160a01b038216610689576106896323d3ad8160e21b610838565b506001600160a01b031660009081526005602052604090205467ffffffffffffffff1690565b60606003805461034c90610d4c565b3360008181526007602090815260408083206001600160a01b03871680855290835292819020805460ff191686151590811790915590519081529192917f17307eab39ab6107e8899845ad3d59bd9653f200f220920489ca2b5937696c31910160405180910390a35050565b61073584848461041a565b6001600160a01b0383163b15610765576107518484848461097b565b610765576107656368d2bf6b60e11b610838565b50505050565b6060610776826107f3565b61078a5761078a630a14c4b560e41b610838565b60006107a160408051602081019091526000815290565b905080516000036107c157604051806020016040528060008152506107ec565b806107cb84610a5d565b6040516020016107dc929190610d86565b6040516020818303038152906040525b9392505050565b600080548210156108335760005b50600082815260046020526040812054908190036108295761082283610db5565b9250610801565b600160e01b161590505b919050565b8060005260046000fd5b600061084d8361065e565b90508180156108655750336001600160a01b03821614155b156108885761087481336102bd565b610888576108886367d9dca160e11b610838565b60008381526006602052604080822080546001600160a01b0319166001600160a01b0388811691821790925591518693918516917f8c5be1e5ebec7d5bd14f71427d1e84f3dd0314c0f7b2291e5b200ac8c7c3b92591a450505050565b6000818152600460205260408120549081900361095857600054821061091557610915636f96cda160e11b610838565b5b5060001901600081815260046020526040902054801561091657600160e01b811660000361094357919050565b610953636f96cda160e11b610838565b610916565b600160e01b811660000361096b57919050565b610833636f96cda160e11b610838565b604051630a85bd0160e11b81526000906001600160a01b0385169063150b7a02906109b0903390899088908890600401610dda565b6020604051808303816000875af19250505080156109eb575060408051601f3d908101601f191682019092526109e891810190610e17565b60015b610a40573d808015610a19576040519150601f19603f3d011682016040523d82523d6000602084013e610a1e565b606091505b508051600003610a3857610a386368d2bf6b60e11b610838565b805181602001fd5b6001600160e01b031916630a85bd0160e11b149050949350505050565b606060a06040510180604052602081039150506000815280825b600183039250600a81066030018353600a900480610a775750819003601f19909101908152919050565b6001600160e01b031981168114610ab757600080fd5b50565b600060208284031215610acc57600080fd5b81356107ec81610aa1565b60005b83811015610af2578181015183820152602001610ada565b50506000910152565b60008151808452610b13816020860160208601610ad7565b601f01601f19169290920160200192915050565b6020815260006107ec6020830184610afb565b600060208284031215610b4c57600080fd5b5035919050565b80356001600160a01b038116811461083357600080fd5b60008060408385031215610b7d57600080fd5b610b8683610b53565b946020939093013593505050565b600080600060608486031215610ba957600080fd5b610bb284610b53565b9250610bc060208501610b53565b9150604084013590509250925092565b600060208284031215610be257600080fd5b6107ec82610b53565b60008060408385031215610bfe57600080fd5b610c0783610b53565b915060208301358015158114610c1c57600080fd5b809150509250929050565b634e487b7160e01b600052604160045260246000fd5b60008060008060808587031215610c5357600080fd5b610c5c85610b53565b9350610c6a60208601610b53565b925060408501359150606085013567ffffffffffffffff80821115610c8e57600080fd5b818701915087601f830112610ca257600080fd5b813581811115610cb457610cb4610c27565b604051601f8201601f19908116603f01168101908382118183101715610cdc57610cdc610c27565b816040528281528a6020848701011115610cf557600080fd5b82602086016020830137600060208483010152809550505050505092959194509250565b60008060408385031215610d2c57600080fd5b610d3583610b53565b9150610d4360208401610b53565b90509250929050565b600181811c90821680610d6057607f821691505b602082108103610d8057634e487b7160e01b600052602260045260246000fd5b50919050565b60008351610d98818460208801610ad7565b835190830190610dac818360208801610ad7565b01949350505050565b600081610dd257634e487b7160e01b600052601160045260246000fd5b506000190190565b6001600160a01b0385811682528416602082015260408101839052608060608201819052600090610e0d90830184610afb565b9695505050505050565b600060208284031215610e2957600080fd5b81516107ec81610aa156fea26469706673582212209ed82748ce1d084991348d57a265d3e2c6678de70d6dd6ca3ea3f112eb4760a764736f6c63430008130033",
    "linkReferences": {}
  },
  "methodIdentifiers": {
    "_mint(address,uint256)": "4e6ec247",
    "approve(address,uint256)": "095ea7b3",
    "balanceOf(address)": "70a08231",
    "getApproved(uint256)": "081812fc",
    "isApprovedForAll(address,address)": "e985e9c5",
    "name()": "06fdde03",
    "ownerOf(uint256)": "6352211e",
    "safeTransferFrom(address,address,uint256)": "42842e0e",
    "safeTransferFrom(address,address,uint256,bytes)": "b88d4fde",
    "setApprovalForAll(address,bool)": "a22cb465",
    "supportsInterface(bytes4)": "01ffc9a7",
    "symbol()": "95d89b41",
    "tokenURI(uint256)": "c87b56dd",
    "totalSupply()": "18160ddd",
    "transferFrom(address,address,uint256)": "23b872dd"
  },
  "id": 14
}